{
  "_format": "hh-sol-artifact-1",
  "contractName": "DealToken",
  "sourceName": "contracts/DealToken.sol",
  "abi": [
    {
      "inputs": [],
      "stateMutability": "nonpayable",
      "type": "constructor"
    },
    {
      "inputs": [
        {
          "internalType": "address",
          "name": "spender",
          "type": "address"
        },
        {
          "internalType": "uint256",
          "name": "allowance",
          "type": "uint256"
        },
        {
          "internalType": "uint256",
          "name": "needed",
          "type": "uint256"
        }
      ],
      "name": "ERC20InsufficientAllowance",
      "type": "error"
    },
    {
      "inputs": [
        {
          "internalType": "address",
          "name": "sender",
          "type": "address"
        },
        {
          "internalType": "uint256",
          "name": "balance",
          "type": "uint256"
        },
        {
          "internalType": "uint256",
          "name": "needed",
          "type": "uint256"
        }
      ],
      "name": "ERC20InsufficientBalance",
      "type": "error"
    },
    {
      "inputs": [
        {
          "internalType": "address",
          "name": "approver",
          "type": "address"
        }
      ],
      "name": "ERC20InvalidApprover",
      "type": "error"
    },
    {
      "inputs": [
        {
          "internalType": "address",
          "name": "receiver",
          "type": "address"
        }
      ],
      "name": "ERC20InvalidReceiver",
      "type": "error"
    },
    {
      "inputs": [
        {
          "internalType": "address",
          "name": "sender",
          "type": "address"
        }
      ],
      "name": "ERC20InvalidSender",
      "type": "error"
    },
    {
      "inputs": [
        {
          "internalType": "address",
          "name": "spender",
          "type": "address"
        }
      ],
      "name": "ERC20InvalidSpender",
      "type": "error"
    },
    {
      "anonymous": false,
      "inputs": [
        {
          "indexed": true,
          "internalType": "address",
          "name": "owner",
          "type": "address"
        },
        {
          "indexed": true,
          "internalType": "address",
          "name": "spender",
          "type": "address"
        },
        {
          "indexed": false,
          "internalType": "uint256",
          "name": "value",
          "type": "uint256"
        }
      ],
      "name": "Approval",
      "type": "event"
    },
    {
      "anonymous": false,
      "inputs": [
        {
          "indexed": true,
          "internalType": "address",
          "name": "from",
          "type": "address"
        },
        {
          "indexed": true,
          "internalType": "address",
          "name": "to",
          "type": "address"
        },
        {
          "indexed": false,
          "internalType": "uint256",
          "name": "value",
          "type": "uint256"
        }
      ],
      "name": "Transfer",
      "type": "event"
    },
    {
      "inputs": [],
      "name": "BURN_AMOUNT",
      "outputs": [
        {
          "internalType": "uint256",
          "name": "",
          "type": "uint256"
        }
      ],
      "stateMutability": "view",
      "type": "function"
    },
    {
      "inputs": [],
      "name": "JACKPOT_SUPPLY",
      "outputs": [
        {
          "internalType": "uint256",
          "name": "",
          "type": "uint256"
        }
      ],
      "stateMutability": "view",
      "type": "function"
    },
    {
      "inputs": [],
      "name": "PUBLIC_SALE_SUPPLY",
      "outputs": [
        {
          "internalType": "uint256",
          "name": "",
          "type": "uint256"
        }
      ],
      "stateMutability": "view",
      "type": "function"
    },
    {
      "inputs": [
        {
          "internalType": "address",
          "name": "owner",
          "type": "address"
        },
        {
          "internalType": "address",
          "name": "spender",
          "type": "address"
        }
      ],
      "name": "allowance",
      "outputs": [
        {
          "internalType": "uint256",
          "name": "",
          "type": "uint256"
        }
      ],
      "stateMutability": "view",
      "type": "function"
    },
    {
      "inputs": [
        {
          "internalType": "address",
          "name": "spender",
          "type": "address"
        },
        {
          "internalType": "uint256",
          "name": "value",
          "type": "uint256"
        }
      ],
      "name": "approve",
      "outputs": [
        {
          "internalType": "bool",
          "name": "",
          "type": "bool"
        }
      ],
      "stateMutability": "nonpayable",
      "type": "function"
    },
    {
      "inputs": [
        {
          "internalType": "address",
          "name": "account",
          "type": "address"
        }
      ],
      "name": "balanceOf",
      "outputs": [
        {
          "internalType": "uint256",
          "name": "",
          "type": "uint256"
        }
      ],
      "stateMutability": "view",
      "type": "function"
    },
    {
      "inputs": [],
      "name": "decimals",
      "outputs": [
        {
          "internalType": "uint8",
          "name": "",
          "type": "uint8"
        }
      ],
      "stateMutability": "view",
      "type": "function"
    },
    {
      "inputs": [],
      "name": "name",
      "outputs": [
        {
          "internalType": "string",
          "name": "",
          "type": "string"
        }
      ],
      "stateMutability": "view",
      "type": "function"
    },
    {
      "inputs": [],
      "name": "symbol",
      "outputs": [
        {
          "internalType": "string",
          "name": "",
          "type": "string"
        }
      ],
      "stateMutability": "view",
      "type": "function"
    },
    {
      "inputs": [],
      "name": "totalSupply",
      "outputs": [
        {
          "internalType": "uint256",
          "name": "",
          "type": "uint256"
        }
      ],
      "stateMutability": "view",
      "type": "function"
    },
    {
      "inputs": [
        {
          "internalType": "address",
          "name": "to",
          "type": "address"
        },
        {
          "internalType": "uint256",
          "name": "value",
          "type": "uint256"
        }
      ],
      "name": "transfer",
      "outputs": [
        {
          "internalType": "bool",
          "name": "",
          "type": "bool"
        }
      ],
      "stateMutability": "nonpayable",
      "type": "function"
    },
    {
      "inputs": [
        {
          "internalType": "address",
          "name": "from",
          "type": "address"
        },
        {
          "internalType": "address",
          "name": "to",
          "type": "address"
        },
        {
          "internalType": "uint256",
          "name": "value",
          "type": "uint256"
        }
      ],
      "name": "transferFrom",
      "outputs": [
        {
          "internalType": "bool",
          "name": "",
          "type": "bool"
        }
      ],
      "stateMutability": "nonpayable",
      "type": "function"
    }
  ],
  "bytecode": "0x608060405234801561001057600080fd5b506040518060400160405280600781526020017f4445414c494e47000000000000000000000000000000000000000000000000008152506040518060400160405280600481526020017f4445414c00000000000000000000000000000000000000000000000000000000815250816003908161008c9190610661565b50806004908161009c9190610661565b5050506100bb336b033b2e3c9fd0803ce80000006100dc60201b60201c565b6100d7336b0295be96e64066972000000061016460201b60201c565b610853565b600073ffffffffffffffffffffffffffffffffffffffff168273ffffffffffffffffffffffffffffffffffffffff160361014e5760006040517fec442f050000000000000000000000000000000000000000000000000000000081526004016101459190610774565b60405180910390fd5b610160600083836101ec60201b60201c565b5050565b600073ffffffffffffffffffffffffffffffffffffffff168273ffffffffffffffffffffffffffffffffffffffff16036101d65760006040517f96c6fd1e0000000000000000000000000000000000000000000000000000000081526004016101cd9190610774565b60405180910390fd5b6101e8826000836101ec60201b60201c565b5050565b600073ffffffffffffffffffffffffffffffffffffffff168373ffffffffffffffffffffffffffffffffffffffff160361023e57806002600082825461023291906107be565b92505081905550610311565b60008060008573ffffffffffffffffffffffffffffffffffffffff1673ffffffffffffffffffffffffffffffffffffffff168152602001908152602001600020549050818110156102ca578381836040517fe450d38c0000000000000000000000000000000000000000000000000000000081526004016102c193929190610801565b60405180910390fd5b8181036000808673ffffffffffffffffffffffffffffffffffffffff1673ffffffffffffffffffffffffffffffffffffffff16815260200190815260200160002081905550505b600073ffffffffffffffffffffffffffffffffffffffff168273ffffffffffffffffffffffffffffffffffffffff160361035a57806002600082825403925050819055506103a7565b806000808473ffffffffffffffffffffffffffffffffffffffff1673ffffffffffffffffffffffffffffffffffffffff168152602001908152602001600020600082825401925050819055505b8173ffffffffffffffffffffffffffffffffffffffff168373ffffffffffffffffffffffffffffffffffffffff167fddf252ad1be2c89b69c2b068fc378daa952ba7f163c4a11628f55a4df523b3ef836040516104049190610838565b60405180910390a3505050565b600081519050919050565b7f4e487b7100000000000000000000000000000000000000000000000000000000600052604160045260246000fd5b7f4e487b7100000000000000000000000000000000000000000000000000000000600052602260045260246000fd5b6000600282049050600182168061049257607f821691505b6020821081036104a5576104a461044b565b5b50919050565b60008190508160005260206000209050919050565b60006020601f8301049050919050565b600082821b905092915050565b60006008830261050d7fffffffffffffffffffffffffffffffffffffffffffffffffffffffffffffffff826104d0565b61051786836104d0565b95508019841693508086168417925050509392505050565b6000819050919050565b6000819050919050565b600061055e6105596105548461052f565b610539565b61052f565b9050919050565b6000819050919050565b61057883610543565b61058c61058482610565565b8484546104dd565b825550505050565b600090565b6105a1610594565b6105ac81848461056f565b505050565b5b818110156105d0576105c5600082610599565b6001810190506105b2565b5050565b601f821115610615576105e6816104ab565b6105ef846104c0565b810160208510156105fe578190505b61061261060a856104c0565b8301826105b1565b50505b505050565b600082821c905092915050565b60006106386000198460080261061a565b1980831691505092915050565b60006106518383610627565b9150826002028217905092915050565b61066a82610411565b67ffffffffffffffff8111156106835761068261041c565b5b61068d825461047a565b6106988282856105d4565b600060209050601f8311600181146106cb57600084156106b9578287015190505b6106c38582610645565b86555061072b565b601f1984166106d9866104ab565b60005b82811015610701578489015182556001820191506020850194506020810190506106dc565b8683101561071e578489015161071a601f891682610627565b8355505b6001600288020188555050505b505050505050565b600073ffffffffffffffffffffffffffffffffffffffff82169050919050565b600061075e82610733565b9050919050565b61076e81610753565b82525050565b60006020820190506107896000830184610765565b92915050565b7f4e487b7100000000000000000000000000000000000000000000000000000000600052601160045260246000fd5b60006107c98261052f565b91506107d48361052f565b92508282019050808211156107ec576107eb61078f565b5b92915050565b6107fb8161052f565b82525050565b60006060820190506108166000830186610765565b61082360208301856107f2565b61083060408301846107f2565b949350505050565b600060208201905061084d60008301846107f2565b92915050565b610efe806108626000396000f3fe608060405234801561001057600080fd5b50600436106100b45760003560e01c806370a082311161007157806370a0823114610191578063830aec6d146101c157806389defa2a146101df57806395d89b41146101fd578063a9059cbb1461021b578063dd62ed3e1461024b576100b4565b806306fdde03146100b9578063095ea7b3146100d757806318160ddd1461010757806320ad6ae31461012557806323b872dd14610143578063313ce56714610173575b600080fd5b6100c161027b565b6040516100ce9190610b52565b60405180910390f35b6100f160048036038101906100ec9190610c0d565b61030d565b6040516100fe9190610c68565b60405180910390f35b61010f610330565b60405161011c9190610c92565b60405180910390f35b61012d61033a565b60405161013a9190610c92565b60405180910390f35b61015d60048036038101906101589190610cad565b61034a565b60405161016a9190610c68565b60405180910390f35b61017b610379565b6040516101889190610d1c565b60405180910390f35b6101ab60048036038101906101a69190610d37565b610382565b6040516101b89190610c92565b60405180910390f35b6101c96103ca565b6040516101d69190610c92565b60405180910390f35b6101e76103d9565b6040516101f49190610c92565b60405180910390f35b6102056103e8565b6040516102129190610b52565b60405180910390f35b61023560048036038101906102309190610c0d565b61047a565b6040516102429190610c68565b60405180910390f35b61026560048036038101906102609190610d64565b61049d565b6040516102729190610c92565b60405180910390f35b60606003805461028a90610dd3565b80601f01602080910402602001604051908101604052809291908181526020018280546102b690610dd3565b80156103035780601f106102d857610100808354040283529160200191610303565b820191906000526020600020905b8154815290600101906020018083116102e657829003601f168201915b5050505050905090565b600080610318610524565b905061032581858561052c565b600191505092915050565b6000600254905090565b6b0295be96e64066972000000081565b600080610355610524565b905061036285828561053e565b61036d8585856105d2565b60019150509392505050565b60006012905090565b60008060008373ffffffffffffffffffffffffffffffffffffffff1673ffffffffffffffffffffffffffffffffffffffff168152602001908152602001600020549050919050565b6a52b7d2dcc80cd2e400000081565b6a52b7d2dcc80cd2e400000081565b6060600480546103f790610dd3565b80601f016020809104026020016040519081016040528092919081815260200182805461042390610dd3565b80156104705780601f1061044557610100808354040283529160200191610470565b820191906000526020600020905b81548152906001019060200180831161045357829003601f168201915b5050505050905090565b600080610485610524565b90506104928185856105d2565b600191505092915050565b6000600160008473ffffffffffffffffffffffffffffffffffffffff1673ffffffffffffffffffffffffffffffffffffffff16815260200190815260200160002060008373ffffffffffffffffffffffffffffffffffffffff1673ffffffffffffffffffffffffffffffffffffffff16815260200190815260200160002054905092915050565b600033905090565b61053983838360016106c6565b505050565b600061054a848461049d565b90507fffffffffffffffffffffffffffffffffffffffffffffffffffffffffffffffff81146105cc57818110156105bc578281836040517ffb8f41b20000000000000000000000000000000000000000000000000000000081526004016105b393929190610e13565b60405180910390fd5b6105cb848484840360006106c6565b5b50505050565b600073ffffffffffffffffffffffffffffffffffffffff168373ffffffffffffffffffffffffffffffffffffffff16036106445760006040517f96c6fd1e00000000000000000000000000000000000000000000000000000000815260040161063b9190610e4a565b60405180910390fd5b600073ffffffffffffffffffffffffffffffffffffffff168273ffffffffffffffffffffffffffffffffffffffff16036106b65760006040517fec442f050000000000000000000000000000000000000000000000000000000081526004016106ad9190610e4a565b60405180910390fd5b6106c183838361089d565b505050565b600073ffffffffffffffffffffffffffffffffffffffff168473ffffffffffffffffffffffffffffffffffffffff16036107385760006040517fe602df0500000000000000000000000000000000000000000000000000000000815260040161072f9190610e4a565b60405180910390fd5b600073ffffffffffffffffffffffffffffffffffffffff168373ffffffffffffffffffffffffffffffffffffffff16036107aa5760006040517f94280d620000000000000000000000000000000000000000000000000000000081526004016107a19190610e4a565b60405180910390fd5b81600160008673ffffffffffffffffffffffffffffffffffffffff1673ffffffffffffffffffffffffffffffffffffffff16815260200190815260200160002060008573ffffffffffffffffffffffffffffffffffffffff1673ffffffffffffffffffffffffffffffffffffffff168152602001908152602001600020819055508015610897578273ffffffffffffffffffffffffffffffffffffffff168473ffffffffffffffffffffffffffffffffffffffff167f8c5be1e5ebec7d5bd14f71427d1e84f3dd0314c0f7b2291e5b200ac8c7c3b9258460405161088e9190610c92565b60405180910390a35b50505050565b600073ffffffffffffffffffffffffffffffffffffffff168373ffffffffffffffffffffffffffffffffffffffff16036108ef5780600260008282546108e39190610e94565b925050819055506109c2565b60008060008573ffffffffffffffffffffffffffffffffffffffff1673ffffffffffffffffffffffffffffffffffffffff1681526020019081526020016000205490508181101561097b578381836040517fe450d38c00000000000000000000000000000000000000000000000000000000815260040161097293929190610e13565b60405180910390fd5b8181036000808673ffffffffffffffffffffffffffffffffffffffff1673ffffffffffffffffffffffffffffffffffffffff16815260200190815260200160002081905550505b600073ffffffffffffffffffffffffffffffffffffffff168273ffffffffffffffffffffffffffffffffffffffff1603610a0b5780600260008282540392505081905550610a58565b806000808473ffffffffffffffffffffffffffffffffffffffff1673ffffffffffffffffffffffffffffffffffffffff168152602001908152602001600020600082825401925050819055505b8173ffffffffffffffffffffffffffffffffffffffff168373ffffffffffffffffffffffffffffffffffffffff167fddf252ad1be2c89b69c2b068fc378daa952ba7f163c4a11628f55a4df523b3ef83604051610ab59190610c92565b60405180910390a3505050565b600081519050919050565b600082825260208201905092915050565b60005b83811015610afc578082015181840152602081019050610ae1565b60008484015250505050565b6000601f19601f8301169050919050565b6000610b2482610ac2565b610b2e8185610acd565b9350610b3e818560208601610ade565b610b4781610b08565b840191505092915050565b60006020820190508181036000830152610b6c8184610b19565b905092915050565b600080fd5b600073ffffffffffffffffffffffffffffffffffffffff82169050919050565b6000610ba482610b79565b9050919050565b610bb481610b99565b8114610bbf57600080fd5b50565b600081359050610bd181610bab565b92915050565b6000819050919050565b610bea81610bd7565b8114610bf557600080fd5b50565b600081359050610c0781610be1565b92915050565b60008060408385031215610c2457610c23610b74565b5b6000610c3285828601610bc2565b9250506020610c4385828601610bf8565b9150509250929050565b60008115159050919050565b610c6281610c4d565b82525050565b6000602082019050610c7d6000830184610c59565b92915050565b610c8c81610bd7565b82525050565b6000602082019050610ca76000830184610c83565b92915050565b600080600060608486031215610cc657610cc5610b74565b5b6000610cd486828701610bc2565b9350506020610ce586828701610bc2565b9250506040610cf686828701610bf8565b9150509250925092565b600060ff82169050919050565b610d1681610d00565b82525050565b6000602082019050610d316000830184610d0d565b92915050565b600060208284031215610d4d57610d4c610b74565b5b6000610d5b84828501610bc2565b91505092915050565b60008060408385031215610d7b57610d7a610b74565b5b6000610d8985828601610bc2565b9250506020610d9a85828601610bc2565b9150509250929050565b7f4e487b7100000000000000000000000000000000000000000000000000000000600052602260045260246000fd5b60006002820490506001821680610deb57607f821691505b602082108103610dfe57610dfd610da4565b5b50919050565b610e0d81610b99565b82525050565b6000606082019050610e286000830186610e04565b610e356020830185610c83565b610e426040830184610c83565b949350505050565b6000602082019050610e5f6000830184610e04565b92915050565b7f4e487b7100000000000000000000000000000000000000000000000000000000600052601160045260246000fd5b6000610e9f82610bd7565b9150610eaa83610bd7565b9250828201905080821115610ec257610ec1610e65565b5b9291505056fea26469706673582212202afaeabe0b76b9bab6f3e9f950302dcd1c4bd8173cf7a1180944a74e07df1f9864736f6c634300081b0033",
  "linkReferences": {},
  "deployedLinkReferences": {}
}