{
  "_format": "hh-sol-artifact-1",
  "contractName": "Dealing",
  "sourceName": "contracts/Deal.sol",
  "abi": [
    {
      "inputs": [
        {
          "internalType": "uint256",
          "name": "",
          "type": "uint256"
        }
      ],
      "name": "Deals",
      "outputs": [
        {
          "internalType": "uint256",
          "name": "id",
          "type": "uint256"
        },
        {
          "internalType": "uint256",
          "name": "dealamount",
          "type": "uint256"
        },
        {
          "internalType": "address",
          "name": "buyer",
          "type": "address"
        },
        {
          "internalType": "address",
          "name": "seller",
          "type": "address"
        },
        {
          "internalType": "enum Dealing.Status",
          "name": "dealstatus",
          "type": "uint8"
        }
      ],
      "stateMutability": "view",
      "type": "function"
    },
    {
      "inputs": [
        {
          "internalType": "uint256",
          "name": "amount",
          "type": "uint256"
        }
      ],
      "name": "Withdraw",
      "outputs": [],
      "stateMutability": "payable",
      "type": "function"
    },
    {
      "stateMutability": "payable",
      "type": "receive"
    }
  ],
  "bytecode": "0x6080604052348015600f57600080fd5b506105998061001f6000396000f3fe60806040526004361061002d5760003560e01c80635b6b431d1461009e578063be6da18c146100ba57610099565b3661009957600034116100435761004261029e565b5b346000803373ffffffffffffffffffffffffffffffffffffffff1673ffffffffffffffffffffffffffffffffffffffff16815260200190815260200160002060008282546100919190610306565b925050819055005b600080fd5b6100b860048036038101906100b3919061036b565b6100fb565b005b3480156100c657600080fd5b506100e160048036038101906100dc919061036b565b61021b565b6040516100f295949392919061045f565b60405180910390f35b806000803373ffffffffffffffffffffffffffffffffffffffff1673ffffffffffffffffffffffffffffffffffffffff16815260200190815260200160002054101561017c576040517f08c379a00000000000000000000000000000000000000000000000000000000081526004016101739061050f565b60405180910390fd5b806000803373ffffffffffffffffffffffffffffffffffffffff1673ffffffffffffffffffffffffffffffffffffffff16815260200190815260200160002060008282546101ca919061052f565b925050819055503373ffffffffffffffffffffffffffffffffffffffff166108fc829081150290604051600060405180830381858888f19350505050158015610217573d6000803e3d6000fd5b5050565b60016020528060005260406000206000915090508060000154908060010154908060020160009054906101000a900473ffffffffffffffffffffffffffffffffffffffff16908060030160009054906101000a900473ffffffffffffffffffffffffffffffffffffffff16908060030160149054906101000a900460ff16905085565b7f4e487b7100000000000000000000000000000000000000000000000000000000600052600160045260246000fd5b6000819050919050565b7f4e487b7100000000000000000000000000000000000000000000000000000000600052601160045260246000fd5b6000610311826102cd565b915061031c836102cd565b9250828201905080821115610334576103336102d7565b5b92915050565b600080fd5b610348816102cd565b811461035357600080fd5b50565b6000813590506103658161033f565b92915050565b6000602082840312156103815761038061033a565b5b600061038f84828501610356565b91505092915050565b6103a1816102cd565b82525050565b600073ffffffffffffffffffffffffffffffffffffffff82169050919050565b60006103d2826103a7565b9050919050565b6103e2816103c7565b82525050565b7f4e487b7100000000000000000000000000000000000000000000000000000000600052602160045260246000fd5b60088110610428576104276103e8565b5b50565b600081905061043982610417565b919050565b60006104498261042b565b9050919050565b6104598161043e565b82525050565b600060a0820190506104746000830188610398565b6104816020830187610398565b61048e60408301866103d9565b61049b60608301856103d9565b6104a86080830184610450565b9695505050505050565b600082825260208201905092915050565b7f496e7375666669656e742042616c616e63650000000000000000000000000000600082015250565b60006104f96012836104b2565b9150610504826104c3565b602082019050919050565b60006020820190508181036000830152610528816104ec565b9050919050565b600061053a826102cd565b9150610545836102cd565b925082820390508181111561055d5761055c6102d7565b5b9291505056fea264697066735822122075c198c1275b12a73be3c9ab6b23c96d7882c52ba6cae4ee3f95739f994aec6264736f6c634300081b0033",
  "linkReferences": {},
  "deployedLinkReferences": {}
}