{
  "_format": "hh-sol-artifact-1",
  "contractName": "Dealing",
  "sourceName": "contracts/Deal.sol",
  "abi": [
    {
      "anonymous": false,
      "inputs": [
        {
          "indexed": false,
          "internalType": "address",
          "name": "user",
          "type": "address"
        },
        {
          "indexed": false,
          "internalType": "uint256",
          "name": "beforeAmount",
          "type": "uint256"
        },
        {
          "indexed": false,
          "internalType": "uint256",
          "name": "afterAmount",
          "type": "uint256"
        }
      ],
      "name": "LogBalanceUpdate",
      "type": "event"
    },
    {
      "anonymous": false,
      "inputs": [
        {
          "indexed": false,
          "internalType": "uint256",
          "name": "dealId",
          "type": "uint256"
        },
        {
          "indexed": false,
          "internalType": "enum Dealing.Status",
          "name": "newStatus",
          "type": "uint8"
        }
      ],
      "name": "LogDealStatusUpdate",
      "type": "event"
    },
    {
      "inputs": [
        {
          "internalType": "address",
          "name": "",
          "type": "address"
        }
      ],
      "name": "Balance",
      "outputs": [
        {
          "internalType": "uint256",
          "name": "",
          "type": "uint256"
        }
      ],
      "stateMutability": "view",
      "type": "function"
    },
    {
      "inputs": [
        {
          "internalType": "uint256",
          "name": "_dealamount",
          "type": "uint256"
        },
        {
          "internalType": "uint256",
          "name": "_latefees",
          "type": "uint256"
        },
        {
          "internalType": "address",
          "name": "_seller",
          "type": "address"
        }
      ],
      "name": "BuyerDealAdd",
      "outputs": [],
      "stateMutability": "nonpayable",
      "type": "function"
    },
    {
      "inputs": [],
      "name": "CurrentId",
      "outputs": [
        {
          "internalType": "uint256",
          "name": "",
          "type": "uint256"
        }
      ],
      "stateMutability": "view",
      "type": "function"
    },
    {
      "inputs": [
        {
          "internalType": "uint256",
          "name": "",
          "type": "uint256"
        }
      ],
      "name": "Deals",
      "outputs": [
        {
          "internalType": "uint256",
          "name": "id",
          "type": "uint256"
        },
        {
          "internalType": "uint256",
          "name": "dealamount",
          "type": "uint256"
        },
        {
          "internalType": "uint256",
          "name": "latedays",
          "type": "uint256"
        },
        {
          "internalType": "uint256",
          "name": "latefeesperday",
          "type": "uint256"
        },
        {
          "internalType": "address",
          "name": "buyer",
          "type": "address"
        },
        {
          "internalType": "address",
          "name": "seller",
          "type": "address"
        },
        {
          "internalType": "enum Dealing.Status",
          "name": "dealstatus",
          "type": "uint8"
        }
      ],
      "stateMutability": "view",
      "type": "function"
    },
    {
      "inputs": [
        {
          "internalType": "address",
          "name": "",
          "type": "address"
        }
      ],
      "name": "LockAmounts",
      "outputs": [
        {
          "internalType": "uint256",
          "name": "",
          "type": "uint256"
        }
      ],
      "stateMutability": "view",
      "type": "function"
    },
    {
      "inputs": [
        {
          "internalType": "uint256",
          "name": "_id",
          "type": "uint256"
        }
      ],
      "name": "SellerReceive",
      "outputs": [],
      "stateMutability": "nonpayable",
      "type": "function"
    },
    {
      "inputs": [
        {
          "internalType": "uint256",
          "name": "_id",
          "type": "uint256"
        }
      ],
      "name": "SellerSend",
      "outputs": [],
      "stateMutability": "nonpayable",
      "type": "function"
    },
    {
      "inputs": [
        {
          "internalType": "uint256",
          "name": "amount",
          "type": "uint256"
        }
      ],
      "name": "Withdraw",
      "outputs": [],
      "stateMutability": "payable",
      "type": "function"
    },
    {
      "inputs": [
        {
          "internalType": "uint256",
          "name": "_id",
          "type": "uint256"
        }
      ],
      "name": "sellerAgreewidthdeal",
      "outputs": [],
      "stateMutability": "nonpayable",
      "type": "function"
    },
    {
      "stateMutability": "payable",
      "type": "receive"
    }
  ],
  "bytecode": "0x6080604052348015600f57600080fd5b50611e038061001f6000396000f3fe60806040526004361061008a5760003560e01c80635650afde116100595780635650afde146101c95780635b6b431d146101f25780638b5c12431461020e5780638c4dd38214610237578063be6da18c14610260576100f6565b806301ec915a146100fb5780630fab3007146101265780632233277b1461014f578063239fcf0f1461018c576100f6565b366100f657600034116100a05761009f611563565b5b346000803373ffffffffffffffffffffffffffffffffffffffff1673ffffffffffffffffffffffffffffffffffffffff16815260200190815260200160002060008282546100ee91906115cb565b925050819055005b600080fd5b34801561010757600080fd5b506101106102a3565b60405161011d919061160e565b60405180910390f35b34801561013257600080fd5b5061014d6004803603810190610148919061165a565b6102a9565b005b34801561015b57600080fd5b50610176600480360381019061017191906116e5565b610455565b604051610183919061160e565b60405180910390f35b34801561019857600080fd5b506101b360048036038101906101ae91906116e5565b61046d565b6040516101c0919061160e565b60405180910390f35b3480156101d557600080fd5b506101f060048036038101906101eb9190611712565b610485565b005b61020c6004803603810190610207919061165a565b610683565b005b34801561021a57600080fd5b506102356004803603810190610230919061165a565b6107a3565b005b34801561024357600080fd5b5061025e6004803603810190610259919061165a565b611026565b005b34801561026c57600080fd5b506102876004803603810190610282919061165a565b6114d4565b60405161029a97969594939291906117eb565b60405180910390f35b60035481565b806001600082815260200190815260200160002060040160009054906101000a900473ffffffffffffffffffffffffffffffffffffffff1673ffffffffffffffffffffffffffffffffffffffff163373ffffffffffffffffffffffffffffffffffffffff161461034e576040517f08c379a0000000000000000000000000000000000000000000000000000000008152600401610345906118b7565b60405180910390fd5b6002600581111561036257610361611774565b5b6001600084815260200190815260200160002060050160149054906101000a900460ff16600581111561039857610397611774565b5b146103d8576040517f08c379a00000000000000000000000000000000000000000000000000000000081526004016103cf90611949565b60405180910390fd5b60036001600084815260200190815260200160002060050160146101000a81548160ff0219169083600581111561041257610411611774565b5b02179055507fcd8b9599ece017713af44c81feef4a0a8a5868ec2d6fd6907fa8552cda101a61826003604051610449929190611969565b60405180910390a15050565b60026020528060005260406000206000915090505481565b60006020528060005260406000206000915090505481565b8073ffffffffffffffffffffffffffffffffffffffff163373ffffffffffffffffffffffffffffffffffffffff16036104f3576040517f08c379a00000000000000000000000000000000000000000000000000000000081526004016104ea90611a04565b60405180910390fd5b6040518060e001604052806003548152602001848152602001600081526020018381526020013373ffffffffffffffffffffffffffffffffffffffff1681526020018273ffffffffffffffffffffffffffffffffffffffff1681526020016001600581111561056557610564611774565b5b8152506001600060035481526020019081526020016000206000820151816000015560208201518160010155604082015181600201556060820151816003015560808201518160040160006101000a81548173ffffffffffffffffffffffffffffffffffffffff021916908373ffffffffffffffffffffffffffffffffffffffff16021790555060a08201518160050160006101000a81548173ffffffffffffffffffffffffffffffffffffffff021916908373ffffffffffffffffffffffffffffffffffffffff16021790555060c08201518160050160146101000a81548160ff0219169083600581111561065e5761065d611774565b5b02179055509050506003600081548092919061067990611a24565b9190505550505050565b806000803373ffffffffffffffffffffffffffffffffffffffff1673ffffffffffffffffffffffffffffffffffffffff168152602001908152602001600020541015610704576040517f08c379a00000000000000000000000000000000000000000000000000000000081526004016106fb90611ab8565b60405180910390fd5b806000803373ffffffffffffffffffffffffffffffffffffffff1673ffffffffffffffffffffffffffffffffffffffff16815260200190815260200160002060008282546107529190611ad8565b925050819055503373ffffffffffffffffffffffffffffffffffffffff166108fc829081150290604051600060405180830381858888f1935050505015801561079f573d6000803e3d6000fd5b5050565b806001600082815260200190815260200160002060050160009054906101000a900473ffffffffffffffffffffffffffffffffffffffff1673ffffffffffffffffffffffffffffffffffffffff163373ffffffffffffffffffffffffffffffffffffffff1614610848576040517f08c379a000000000000000000000000000000000000000000000000000000000815260040161083f90611b58565b60405180910390fd5b6001600581111561085c5761085b611774565b5b6001600084815260200190815260200160002060050160149054906101000a900460ff16600581111561089257610891611774565b5b146108d2576040517f08c379a00000000000000000000000000000000000000000000000000000000081526004016108c990611bea565b60405180910390fd5b60016000838152602001908152602001600020600101546000806001600086815260200190815260200160002060040160009054906101000a900473ffffffffffffffffffffffffffffffffffffffff1673ffffffffffffffffffffffffffffffffffffffff1673ffffffffffffffffffffffffffffffffffffffff1681526020019081526020016000205410158015610a0257506002600160008481526020019081526020016000206001015461098a9190611c0a565b6000806001600086815260200190815260200160002060050160009054906101000a900473ffffffffffffffffffffffffffffffffffffffff1673ffffffffffffffffffffffffffffffffffffffff1673ffffffffffffffffffffffffffffffffffffffff1681526020019081526020016000205410155b610a41576040517f08c379a0000000000000000000000000000000000000000000000000000000008152600401610a3890611ce4565b60405180910390fd5b60026001600084815260200190815260200160002060050160146101000a81548160ff02191690836005811115610a7b57610a7a611774565b5b021790555060008060006001600086815260200190815260200160002060040160009054906101000a900473ffffffffffffffffffffffffffffffffffffffff1673ffffffffffffffffffffffffffffffffffffffff1673ffffffffffffffffffffffffffffffffffffffff16815260200190815260200160002054905060008060006001600087815260200190815260200160002060050160009054906101000a900473ffffffffffffffffffffffffffffffffffffffff1673ffffffffffffffffffffffffffffffffffffffff1673ffffffffffffffffffffffffffffffffffffffff16815260200190815260200160002054905060016000858152602001908152602001600020600101546000806001600088815260200190815260200160002060040160009054906101000a900473ffffffffffffffffffffffffffffffffffffffff1673ffffffffffffffffffffffffffffffffffffffff1673ffffffffffffffffffffffffffffffffffffffff1681526020019081526020016000206000828254610c0c9190611ad8565b9250508190555060026001600086815260200190815260200160002060010154610c369190611c0a565b6000806001600088815260200190815260200160002060050160009054906101000a900473ffffffffffffffffffffffffffffffffffffffff1673ffffffffffffffffffffffffffffffffffffffff1673ffffffffffffffffffffffffffffffffffffffff1681526020019081526020016000206000828254610cb99190611ad8565b925050819055506001600085815260200190815260200160002060010154600260006001600088815260200190815260200160002060040160009054906101000a900473ffffffffffffffffffffffffffffffffffffffff1673ffffffffffffffffffffffffffffffffffffffff1673ffffffffffffffffffffffffffffffffffffffff1681526020019081526020016000206000828254610d5b91906115cb565b9250508190555060026001600086815260200190815260200160002060010154610d859190611c0a565b600260006001600088815260200190815260200160002060050160009054906101000a900473ffffffffffffffffffffffffffffffffffffffff1673ffffffffffffffffffffffffffffffffffffffff1673ffffffffffffffffffffffffffffffffffffffff1681526020019081526020016000206000828254610e0991906115cb565b9250508190555060008060006001600088815260200190815260200160002060040160009054906101000a900473ffffffffffffffffffffffffffffffffffffffff1673ffffffffffffffffffffffffffffffffffffffff1673ffffffffffffffffffffffffffffffffffffffff16815260200190815260200160002054905060008060006001600089815260200190815260200160002060050160009054906101000a900473ffffffffffffffffffffffffffffffffffffffff1673ffffffffffffffffffffffffffffffffffffffff1673ffffffffffffffffffffffffffffffffffffffff1681526020019081526020016000205490507fb78c508a328d7353d501e1e214927e64c975e88d59f57fe5339f735ca49a34c36001600088815260200190815260200160002060040160009054906101000a900473ffffffffffffffffffffffffffffffffffffffff168584604051610f6b93929190611d04565b60405180910390a17fb78c508a328d7353d501e1e214927e64c975e88d59f57fe5339f735ca49a34c36001600088815260200190815260200160002060050160009054906101000a900473ffffffffffffffffffffffffffffffffffffffff168483604051610fdc93929190611d04565b60405180910390a17fcd8b9599ece017713af44c81feef4a0a8a5868ec2d6fd6907fa8552cda101a61866002604051611016929190611969565b60405180910390a1505050505050565b806001600082815260200190815260200160002060050160009054906101000a900473ffffffffffffffffffffffffffffffffffffffff1673ffffffffffffffffffffffffffffffffffffffff163373ffffffffffffffffffffffffffffffffffffffff16146110cb576040517f08c379a00000000000000000000000000000000000000000000000000000000081526004016110c290611b58565b60405180910390fd5b600360058111156110df576110de611774565b5b6001600084815260200190815260200160002060050160149054906101000a900460ff16600581111561111557611114611774565b5b14611155576040517f08c379a000000000000000000000000000000000000000000000000000000000815260040161114c90611dad565b60405180910390fd5b60056001600084815260200190815260200160002060050160146101000a81548160ff0219169083600581111561118f5761118e611774565b5b02179055506000600260006001600086815260200190815260200160002060040160009054906101000a900473ffffffffffffffffffffffffffffffffffffffff1673ffffffffffffffffffffffffffffffffffffffff1673ffffffffffffffffffffffffffffffffffffffff1681526020019081526020016000205490506000600260006001600087815260200190815260200160002060050160009054906101000a900473ffffffffffffffffffffffffffffffffffffffff1673ffffffffffffffffffffffffffffffffffffffff1673ffffffffffffffffffffffffffffffffffffffff1681526020019081526020016000205490506000600260006001600088815260200190815260200160002060040160009054906101000a900473ffffffffffffffffffffffffffffffffffffffff1673ffffffffffffffffffffffffffffffffffffffff1673ffffffffffffffffffffffffffffffffffffffff168152602001908152602001600020819055506000600260006001600088815260200190815260200160002060050160009054906101000a900473ffffffffffffffffffffffffffffffffffffffff1673ffffffffffffffffffffffffffffffffffffffff1673ffffffffffffffffffffffffffffffffffffffff16815260200190815260200160002081905550816000806001600088815260200190815260200160002060040160009054906101000a900473ffffffffffffffffffffffffffffffffffffffff1673ffffffffffffffffffffffffffffffffffffffff1673ffffffffffffffffffffffffffffffffffffffff168152602001908152602001600020600082825461140291906115cb565b92505081905550806000806001600088815260200190815260200160002060050160009054906101000a900473ffffffffffffffffffffffffffffffffffffffff1673ffffffffffffffffffffffffffffffffffffffff1673ffffffffffffffffffffffffffffffffffffffff168152602001908152602001600020600082825461148d91906115cb565b925050819055507fcd8b9599ece017713af44c81feef4a0a8a5868ec2d6fd6907fa8552cda101a618460056040516114c6929190611969565b60405180910390a150505050565b60016020528060005260406000206000915090508060000154908060010154908060020154908060030154908060040160009054906101000a900473ffffffffffffffffffffffffffffffffffffffff16908060050160009054906101000a900473ffffffffffffffffffffffffffffffffffffffff16908060050160149054906101000a900460ff16905087565b7f4e487b7100000000000000000000000000000000000000000000000000000000600052600160045260246000fd5b6000819050919050565b7f4e487b7100000000000000000000000000000000000000000000000000000000600052601160045260246000fd5b60006115d682611592565b91506115e183611592565b92508282019050808211156115f9576115f861159c565b5b92915050565b61160881611592565b82525050565b600060208201905061162360008301846115ff565b92915050565b600080fd5b61163781611592565b811461164257600080fd5b50565b6000813590506116548161162e565b92915050565b6000602082840312156116705761166f611629565b5b600061167e84828501611645565b91505092915050565b600073ffffffffffffffffffffffffffffffffffffffff82169050919050565b60006116b282611687565b9050919050565b6116c2816116a7565b81146116cd57600080fd5b50565b6000813590506116df816116b9565b92915050565b6000602082840312156116fb576116fa611629565b5b6000611709848285016116d0565b91505092915050565b60008060006060848603121561172b5761172a611629565b5b600061173986828701611645565b935050602061174a86828701611645565b925050604061175b868287016116d0565b9150509250925092565b61176e816116a7565b82525050565b7f4e487b7100000000000000000000000000000000000000000000000000000000600052602160045260246000fd5b600681106117b4576117b3611774565b5b50565b60008190506117c5826117a3565b919050565b60006117d5826117b7565b9050919050565b6117e5816117ca565b82525050565b600060e082019050611800600083018a6115ff565b61180d60208301896115ff565b61181a60408301886115ff565b61182760608301876115ff565b6118346080830186611765565b61184160a0830185611765565b61184e60c08301846117dc565b98975050505050505050565b600082825260208201905092915050565b7f4f6e6c79204275796572206f6620746869732063616e20416772656500000000600082015250565b60006118a1601c8361185a565b91506118ac8261186b565b602082019050919050565b600060208201905081810360008301526118d081611894565b9050919050565b7f53656c6c6572206973206e6f74204167726565206f7220616c7265616479206360008201527f6c6f736564204465616c00000000000000000000000000000000000000000000602082015250565b6000611933602a8361185a565b915061193e826118d7565b604082019050919050565b6000602082019050818103600083015261196281611926565b9050919050565b600060408201905061197e60008301856115ff565b61198b60208301846117dc565b9392505050565b7f427579657220616e642053656c6c657220416464726573732043616e6e6f742060008201527f42652053616d6500000000000000000000000000000000000000000000000000602082015250565b60006119ee60278361185a565b91506119f982611992565b604082019050919050565b60006020820190508181036000830152611a1d816119e1565b9050919050565b6000611a2f82611592565b91507fffffffffffffffffffffffffffffffffffffffffffffffffffffffffffffffff8203611a6157611a6061159c565b5b600182019050919050565b7f496e73756666696369656e742042616c616e6365000000000000000000000000600082015250565b6000611aa260148361185a565b9150611aad82611a6c565b602082019050919050565b60006020820190508181036000830152611ad181611a95565b9050919050565b6000611ae382611592565b9150611aee83611592565b9250828203905081811115611b0657611b0561159c565b5b92915050565b7f4f6e6c792073656c6c6572206f6620746869732063616e204167726565000000600082015250565b6000611b42601d8361185a565b9150611b4d82611b0c565b602082019050919050565b60006020820190508181036000830152611b7181611b35565b9050919050565b7f4465616c206973206e6f7420416464206f7220416c726561647920636c6f736560008201527f6400000000000000000000000000000000000000000000000000000000000000602082015250565b6000611bd460218361185a565b9150611bdf82611b78565b604082019050919050565b60006020820190508181036000830152611c0381611bc7565b9050919050565b6000611c1582611592565b9150611c2083611592565b9250828202611c2e81611592565b91508282048414831517611c4557611c4461159c565b5b5092915050565b7f42757965722062616c616e63652073686f756c64206265203e3d206465616c6160008201527f6d6f756e7420616e642073656c6c65722062616c616e63652073686f756c642060208201527f6265203e3d20646f75626c65206f6620746865206465616c616d6f756e740000604082015250565b6000611cce605e8361185a565b9150611cd982611c4c565b606082019050919050565b60006020820190508181036000830152611cfd81611cc1565b9050919050565b6000606082019050611d196000830186611765565b611d2660208301856115ff565b611d3360408301846115ff565b949350505050565b7f4275796572204e6f742053656e64206f72204465616c20416c7265616479206360008201527f6c6f736564000000000000000000000000000000000000000000000000000000602082015250565b6000611d9760258361185a565b9150611da282611d3b565b604082019050919050565b60006020820190508181036000830152611dc681611d8a565b905091905056fea26469706673582212200b479ec9f7533101449c2304feec6249ca33112880595888a8d274aa35814f0664736f6c634300081b0033",
  "linkReferences": {},
  "deployedLinkReferences": {}
}