{
  "_format": "hh-sol-artifact-1",
  "contractName": "Dealing",
  "sourceName": "contracts/Deal.sol",
  "abi": [
    {
      "inputs": [
        {
          "internalType": "uint256",
          "name": "",
          "type": "uint256"
        }
      ],
      "name": "Deals",
      "outputs": [
        {
          "internalType": "uint256",
          "name": "id",
          "type": "uint256"
        },
        {
          "internalType": "uint256",
          "name": "dealamount",
          "type": "uint256"
        },
        {
          "internalType": "address",
          "name": "buyer",
          "type": "address"
        },
        {
          "internalType": "address",
          "name": "seller",
          "type": "address"
        },
        {
          "internalType": "enum Dealing.Status",
          "name": "dealstatus",
          "type": "uint8"
        }
      ],
      "stateMutability": "view",
      "type": "function"
    }
  ],
  "bytecode": "0x6080604052348015600f57600080fd5b5061029f8061001f6000396000f3fe608060405234801561001057600080fd5b506004361061002b5760003560e01c8063be6da18c14610030575b600080fd5b61004a60048036038101906100459190610122565b610064565b60405161005b959493929190610216565b60405180910390f35b60016020528060005260406000206000915090508060000154908060010154908060020160009054906101000a900473ffffffffffffffffffffffffffffffffffffffff16908060030160009054906101000a900473ffffffffffffffffffffffffffffffffffffffff16908060030160149054906101000a900460ff16905085565b600080fd5b6000819050919050565b6100ff816100ec565b811461010a57600080fd5b50565b60008135905061011c816100f6565b92915050565b600060208284031215610138576101376100e7565b5b60006101468482850161010d565b91505092915050565b610158816100ec565b82525050565b600073ffffffffffffffffffffffffffffffffffffffff82169050919050565b60006101898261015e565b9050919050565b6101998161017e565b82525050565b7f4e487b7100000000000000000000000000000000000000000000000000000000600052602160045260246000fd5b600881106101df576101de61019f565b5b50565b60008190506101f0826101ce565b919050565b6000610200826101e2565b9050919050565b610210816101f5565b82525050565b600060a08201905061022b600083018861014f565b610238602083018761014f565b6102456040830186610190565b6102526060830185610190565b61025f6080830184610207565b969550505050505056fea26469706673582212201e596a2d585447c155f5759c923ca01a437b6b40e5c7baf7f8896f6c5ad572cc64736f6c634300081b0033",
  "linkReferences": {},
  "deployedLinkReferences": {}
}