{
  "_format": "hh-sol-artifact-1",
  "contractName": "Dealing",
  "sourceName": "contracts/Deal.sol",
  "abi": [
    {
      "inputs": [
        {
          "internalType": "address",
          "name": "spender",
          "type": "address"
        },
        {
          "internalType": "uint256",
          "name": "allowance",
          "type": "uint256"
        },
        {
          "internalType": "uint256",
          "name": "needed",
          "type": "uint256"
        }
      ],
      "name": "ERC20InsufficientAllowance",
      "type": "error"
    },
    {
      "inputs": [
        {
          "internalType": "address",
          "name": "sender",
          "type": "address"
        },
        {
          "internalType": "uint256",
          "name": "balance",
          "type": "uint256"
        },
        {
          "internalType": "uint256",
          "name": "needed",
          "type": "uint256"
        }
      ],
      "name": "ERC20InsufficientBalance",
      "type": "error"
    },
    {
      "inputs": [
        {
          "internalType": "address",
          "name": "approver",
          "type": "address"
        }
      ],
      "name": "ERC20InvalidApprover",
      "type": "error"
    },
    {
      "inputs": [
        {
          "internalType": "address",
          "name": "receiver",
          "type": "address"
        }
      ],
      "name": "ERC20InvalidReceiver",
      "type": "error"
    },
    {
      "inputs": [
        {
          "internalType": "address",
          "name": "sender",
          "type": "address"
        }
      ],
      "name": "ERC20InvalidSender",
      "type": "error"
    },
    {
      "inputs": [
        {
          "internalType": "address",
          "name": "spender",
          "type": "address"
        }
      ],
      "name": "ERC20InvalidSpender",
      "type": "error"
    },
    {
      "anonymous": false,
      "inputs": [
        {
          "indexed": true,
          "internalType": "address",
          "name": "owner",
          "type": "address"
        },
        {
          "indexed": true,
          "internalType": "address",
          "name": "spender",
          "type": "address"
        },
        {
          "indexed": false,
          "internalType": "uint256",
          "name": "value",
          "type": "uint256"
        }
      ],
      "name": "Approval",
      "type": "event"
    },
    {
      "anonymous": false,
      "inputs": [
        {
          "indexed": true,
          "internalType": "address",
          "name": "from",
          "type": "address"
        },
        {
          "indexed": true,
          "internalType": "address",
          "name": "to",
          "type": "address"
        },
        {
          "indexed": false,
          "internalType": "uint256",
          "name": "value",
          "type": "uint256"
        }
      ],
      "name": "Transfer",
      "type": "event"
    },
    {
      "inputs": [],
      "name": "BURN_AMOUNT",
      "outputs": [
        {
          "internalType": "uint256",
          "name": "",
          "type": "uint256"
        }
      ],
      "stateMutability": "view",
      "type": "function"
    },
    {
      "inputs": [
        {
          "internalType": "address",
          "name": "",
          "type": "address"
        }
      ],
      "name": "Balance",
      "outputs": [
        {
          "internalType": "uint256",
          "name": "",
          "type": "uint256"
        }
      ],
      "stateMutability": "view",
      "type": "function"
    },
    {
      "inputs": [],
      "name": "CurrentId",
      "outputs": [
        {
          "internalType": "uint256",
          "name": "",
          "type": "uint256"
        }
      ],
      "stateMutability": "view",
      "type": "function"
    },
    {
      "inputs": [
        {
          "internalType": "uint256",
          "name": "",
          "type": "uint256"
        }
      ],
      "name": "Deals",
      "outputs": [
        {
          "internalType": "uint256",
          "name": "id",
          "type": "uint256"
        },
        {
          "internalType": "uint256",
          "name": "dealAmount",
          "type": "uint256"
        },
        {
          "internalType": "uint256",
          "name": "lateFees",
          "type": "uint256"
        },
        {
          "internalType": "uint256",
          "name": "lateDays",
          "type": "uint256"
        },
        {
          "internalType": "address",
          "name": "buyer",
          "type": "address"
        },
        {
          "internalType": "address",
          "name": "seller",
          "type": "address"
        },
        {
          "internalType": "uint256",
          "name": "dealAddDate",
          "type": "uint256"
        },
        {
          "internalType": "uint256",
          "name": "dealDeadline",
          "type": "uint256"
        },
        {
          "internalType": "uint256",
          "name": "sendDate",
          "type": "uint256"
        },
        {
          "internalType": "uint256",
          "name": "receiveDate",
          "type": "uint256"
        },
        {
          "internalType": "uint256",
          "name": "fine",
          "type": "uint256"
        },
        {
          "internalType": "enum Dealing.Status",
          "name": "dealStatus",
          "type": "uint8"
        }
      ],
      "stateMutability": "view",
      "type": "function"
    },
    {
      "inputs": [],
      "name": "JACKPOT_SUPPLY",
      "outputs": [
        {
          "internalType": "uint256",
          "name": "",
          "type": "uint256"
        }
      ],
      "stateMutability": "view",
      "type": "function"
    },
    {
      "inputs": [
        {
          "internalType": "address",
          "name": "",
          "type": "address"
        }
      ],
      "name": "LockAmount",
      "outputs": [
        {
          "internalType": "uint256",
          "name": "",
          "type": "uint256"
        }
      ],
      "stateMutability": "view",
      "type": "function"
    },
    {
      "inputs": [],
      "name": "PUBLIC_SALE_SUPPLY",
      "outputs": [
        {
          "internalType": "uint256",
          "name": "",
          "type": "uint256"
        }
      ],
      "stateMutability": "view",
      "type": "function"
    },
    {
      "inputs": [
        {
          "internalType": "address",
          "name": "owner",
          "type": "address"
        },
        {
          "internalType": "address",
          "name": "spender",
          "type": "address"
        }
      ],
      "name": "allowance",
      "outputs": [
        {
          "internalType": "uint256",
          "name": "",
          "type": "uint256"
        }
      ],
      "stateMutability": "view",
      "type": "function"
    },
    {
      "inputs": [
        {
          "internalType": "address",
          "name": "spender",
          "type": "address"
        },
        {
          "internalType": "uint256",
          "name": "value",
          "type": "uint256"
        }
      ],
      "name": "approve",
      "outputs": [
        {
          "internalType": "bool",
          "name": "",
          "type": "bool"
        }
      ],
      "stateMutability": "nonpayable",
      "type": "function"
    },
    {
      "inputs": [
        {
          "internalType": "address",
          "name": "account",
          "type": "address"
        }
      ],
      "name": "balanceOf",
      "outputs": [
        {
          "internalType": "uint256",
          "name": "",
          "type": "uint256"
        }
      ],
      "stateMutability": "view",
      "type": "function"
    },
    {
      "inputs": [
        {
          "internalType": "uint256",
          "name": "_id",
          "type": "uint256"
        }
      ],
      "name": "buyerAgree",
      "outputs": [],
      "stateMutability": "nonpayable",
      "type": "function"
    },
    {
      "inputs": [
        {
          "internalType": "uint256",
          "name": "_id",
          "type": "uint256"
        }
      ],
      "name": "buyerReceive",
      "outputs": [],
      "stateMutability": "nonpayable",
      "type": "function"
    },
    {
      "inputs": [
        {
          "internalType": "uint256",
          "name": "_id",
          "type": "uint256"
        }
      ],
      "name": "buyerSatisfy",
      "outputs": [],
      "stateMutability": "nonpayable",
      "type": "function"
    },
    {
      "inputs": [],
      "name": "decimals",
      "outputs": [
        {
          "internalType": "uint8",
          "name": "",
          "type": "uint8"
        }
      ],
      "stateMutability": "view",
      "type": "function"
    },
    {
      "inputs": [],
      "name": "name",
      "outputs": [
        {
          "internalType": "string",
          "name": "",
          "type": "string"
        }
      ],
      "stateMutability": "view",
      "type": "function"
    },
    {
      "inputs": [
        {
          "internalType": "address",
          "name": "_buyer",
          "type": "address"
        },
        {
          "internalType": "uint256",
          "name": "_dealAmount",
          "type": "uint256"
        },
        {
          "internalType": "uint256",
          "name": "_lateFees",
          "type": "uint256"
        },
        {
          "internalType": "uint256",
          "name": "_dealDeadline",
          "type": "uint256"
        }
      ],
      "name": "sellerDealAdd",
      "outputs": [],
      "stateMutability": "nonpayable",
      "type": "function"
    },
    {
      "inputs": [
        {
          "internalType": "uint256",
          "name": "_id",
          "type": "uint256"
        }
      ],
      "name": "sellerSatisfy",
      "outputs": [],
      "stateMutability": "nonpayable",
      "type": "function"
    },
    {
      "inputs": [
        {
          "internalType": "uint256",
          "name": "_id",
          "type": "uint256"
        }
      ],
      "name": "sellerSend",
      "outputs": [],
      "stateMutability": "nonpayable",
      "type": "function"
    },
    {
      "inputs": [],
      "name": "symbol",
      "outputs": [
        {
          "internalType": "string",
          "name": "",
          "type": "string"
        }
      ],
      "stateMutability": "view",
      "type": "function"
    },
    {
      "inputs": [],
      "name": "totalSupply",
      "outputs": [
        {
          "internalType": "uint256",
          "name": "",
          "type": "uint256"
        }
      ],
      "stateMutability": "view",
      "type": "function"
    },
    {
      "inputs": [
        {
          "internalType": "address",
          "name": "to",
          "type": "address"
        },
        {
          "internalType": "uint256",
          "name": "value",
          "type": "uint256"
        }
      ],
      "name": "transfer",
      "outputs": [
        {
          "internalType": "bool",
          "name": "",
          "type": "bool"
        }
      ],
      "stateMutability": "nonpayable",
      "type": "function"
    },
    {
      "inputs": [
        {
          "internalType": "address",
          "name": "from",
          "type": "address"
        },
        {
          "internalType": "address",
          "name": "to",
          "type": "address"
        },
        {
          "internalType": "uint256",
          "name": "value",
          "type": "uint256"
        }
      ],
      "name": "transferFrom",
      "outputs": [
        {
          "internalType": "bool",
          "name": "",
          "type": "bool"
        }
      ],
      "stateMutability": "nonpayable",
      "type": "function"
    },
    {
      "inputs": [
        {
          "internalType": "uint256",
          "name": "amount",
          "type": "uint256"
        },
        {
          "internalType": "address",
          "name": "to",
          "type": "address"
        }
      ],
      "name": "withdraw",
      "outputs": [],
      "stateMutability": "payable",
      "type": "function"
    },
    {
      "stateMutability": "payable",
      "type": "receive"
    }
  ],
  "bytecode": "0x608060405234801561001057600080fd5b506040518060400160405280600781526020017f4445414c494e47000000000000000000000000000000000000000000000000008152506040518060400160405280600481526020017f4445414c00000000000000000000000000000000000000000000000000000000815250816003908161008c9190610661565b50806004908161009c9190610661565b5050506100bb336b033b2e3c9fd0803ce80000006100dc60201b60201c565b6100d7336b0295be96e64066972000000061016460201b60201c565b610853565b600073ffffffffffffffffffffffffffffffffffffffff168273ffffffffffffffffffffffffffffffffffffffff160361014e5760006040517fec442f050000000000000000000000000000000000000000000000000000000081526004016101459190610774565b60405180910390fd5b610160600083836101ec60201b60201c565b5050565b600073ffffffffffffffffffffffffffffffffffffffff168273ffffffffffffffffffffffffffffffffffffffff16036101d65760006040517f96c6fd1e0000000000000000000000000000000000000000000000000000000081526004016101cd9190610774565b60405180910390fd5b6101e8826000836101ec60201b60201c565b5050565b600073ffffffffffffffffffffffffffffffffffffffff168373ffffffffffffffffffffffffffffffffffffffff160361023e57806002600082825461023291906107be565b92505081905550610311565b60008060008573ffffffffffffffffffffffffffffffffffffffff1673ffffffffffffffffffffffffffffffffffffffff168152602001908152602001600020549050818110156102ca578381836040517fe450d38c0000000000000000000000000000000000000000000000000000000081526004016102c193929190610801565b60405180910390fd5b8181036000808673ffffffffffffffffffffffffffffffffffffffff1673ffffffffffffffffffffffffffffffffffffffff16815260200190815260200160002081905550505b600073ffffffffffffffffffffffffffffffffffffffff168273ffffffffffffffffffffffffffffffffffffffff160361035a57806002600082825403925050819055506103a7565b806000808473ffffffffffffffffffffffffffffffffffffffff1673ffffffffffffffffffffffffffffffffffffffff168152602001908152602001600020600082825401925050819055505b8173ffffffffffffffffffffffffffffffffffffffff168373ffffffffffffffffffffffffffffffffffffffff167fddf252ad1be2c89b69c2b068fc378daa952ba7f163c4a11628f55a4df523b3ef836040516104049190610838565b60405180910390a3505050565b600081519050919050565b7f4e487b7100000000000000000000000000000000000000000000000000000000600052604160045260246000fd5b7f4e487b7100000000000000000000000000000000000000000000000000000000600052602260045260246000fd5b6000600282049050600182168061049257607f821691505b6020821081036104a5576104a461044b565b5b50919050565b60008190508160005260206000209050919050565b60006020601f8301049050919050565b600082821b905092915050565b60006008830261050d7fffffffffffffffffffffffffffffffffffffffffffffffffffffffffffffffff826104d0565b61051786836104d0565b95508019841693508086168417925050509392505050565b6000819050919050565b6000819050919050565b600061055e6105596105548461052f565b610539565b61052f565b9050919050565b6000819050919050565b61057883610543565b61058c61058482610565565b8484546104dd565b825550505050565b600090565b6105a1610594565b6105ac81848461056f565b505050565b5b818110156105d0576105c5600082610599565b6001810190506105b2565b5050565b601f821115610615576105e6816104ab565b6105ef846104c0565b810160208510156105fe578190505b61061261060a856104c0565b8301826105b1565b50505b505050565b600082821c905092915050565b60006106386000198460080261061a565b1980831691505092915050565b60006106518383610627565b9150826002028217905092915050565b61066a82610411565b67ffffffffffffffff8111156106835761068261041c565b5b61068d825461047a565b6106988282856105d4565b600060209050601f8311600181146106cb57600084156106b9578287015190505b6106c38582610645565b86555061072b565b601f1984166106d9866104ab565b60005b82811015610701578489015182556001820191506020850194506020810190506106dc565b8683101561071e578489015161071a601f891682610627565b8355505b6001600288020188555050505b505050505050565b600073ffffffffffffffffffffffffffffffffffffffff82169050919050565b600061075e82610733565b9050919050565b61076e81610753565b82525050565b60006020820190506107896000830184610765565b92915050565b7f4e487b7100000000000000000000000000000000000000000000000000000000600052601160045260246000fd5b60006107c98261052f565b91506107d48361052f565b92508282019050808211156107ec576107eb61078f565b5b92915050565b6107fb8161052f565b82525050565b60006060820190506108166000830186610765565b61082360208301856107f2565b61083060408301846107f2565b949350505050565b600060208201905061084d60008301846107f2565b92915050565b612ed4806108626000396000f3fe6080604052600436106101435760003560e01c8063689f5bb7116100b6578063a9059cbb1161006f578063a9059cbb14610507578063be6da18c14610544578063c7c95e221461058c578063dd62ed3e146105b5578063f50f4871146105f2578063f92d93631461061b576101e2565b8063689f5bb7146103f757806370a08231146104205780638203faa31461045d578063830aec6d1461048657806389defa2a146104b157806395d89b41146104dc576101e2565b806320ad6ae31161010857806320ad6ae3146102c1578063239fcf0f146102ec57806323b872dd14610329578063313ce5671461036657806343a86d7f14610391578063440b31da146103ba576101e2565b8062f714ce146101e757806301ec915a1461020357806306fdde031461022e578063095ea7b31461025957806318160ddd14610296576101e2565b366101e2576000341161018b576040517f08c379a000000000000000000000000000000000000000000000000000000000815260040161018290611fb0565b60405180910390fd5b34600560003373ffffffffffffffffffffffffffffffffffffffff1673ffffffffffffffffffffffffffffffffffffffff16815260200190815260200160002060008282546101da9190612009565b925050819055005b600080fd5b61020160048036038101906101fc91906120cc565b610644565b005b34801561020f57600080fd5b5061021861083f565b604051610225919061211b565b60405180910390f35b34801561023a57600080fd5b50610243610845565b60405161025091906121b5565b60405180910390f35b34801561026557600080fd5b50610280600480360381019061027b91906121d7565b6108d7565b60405161028d9190612232565b60405180910390f35b3480156102a257600080fd5b506102ab6108fa565b6040516102b8919061211b565b60405180910390f35b3480156102cd57600080fd5b506102d6610904565b6040516102e3919061211b565b60405180910390f35b3480156102f857600080fd5b50610313600480360381019061030e919061224d565b610914565b604051610320919061211b565b60405180910390f35b34801561033557600080fd5b50610350600480360381019061034b919061227a565b61092c565b60405161035d9190612232565b60405180910390f35b34801561037257600080fd5b5061037b61095b565b60405161038891906122e9565b60405180910390f35b34801561039d57600080fd5b506103b860048036038101906103b39190612304565b610964565b005b3480156103c657600080fd5b506103e160048036038101906103dc919061224d565b610ad6565b6040516103ee919061211b565b60405180910390f35b34801561040357600080fd5b5061041e60048036038101906104199190612304565b610aee565b005b34801561042c57600080fd5b506104476004803603810190610442919061224d565b610c60565b604051610454919061211b565b60405180910390f35b34801561046957600080fd5b50610484600480360381019061047f9190612304565b610ca8565b005b34801561049257600080fd5b5061049b61111e565b6040516104a8919061211b565b60405180910390f35b3480156104bd57600080fd5b506104c661112d565b6040516104d3919061211b565b60405180910390f35b3480156104e857600080fd5b506104f161113c565b6040516104fe91906121b5565b60405180910390f35b34801561051357600080fd5b5061052e600480360381019061052991906121d7565b6111ce565b60405161053b9190612232565b60405180910390f35b34801561055057600080fd5b5061056b60048036038101906105669190612304565b6111f1565b6040516105839c9b9a999897969594939291906123b7565b60405180910390f35b34801561059857600080fd5b506105b360048036038101906105ae9190612471565b61129e565b005b3480156105c157600080fd5b506105dc60048036038101906105d791906124d8565b611537565b6040516105e9919061211b565b60405180910390f35b3480156105fe57600080fd5b5061061960048036038101906106149190612304565b6115be565b005b34801561062757600080fd5b50610642600480360381019061063d9190612304565b61174b565b005b81600560003373ffffffffffffffffffffffffffffffffffffffff1673ffffffffffffffffffffffffffffffffffffffff1681526020019081526020016000205410156106c6576040517f08c379a00000000000000000000000000000000000000000000000000000000081526004016106bd90612564565b60405180910390fd5b6000600660003373ffffffffffffffffffffffffffffffffffffffff1673ffffffffffffffffffffffffffffffffffffffff168152602001908152602001600020549050600081600560003373ffffffffffffffffffffffffffffffffffffffff1673ffffffffffffffffffffffffffffffffffffffff168152602001908152602001600020546107579190612584565b90508381101561079c576040517f08c379a000000000000000000000000000000000000000000000000000000000815260040161079390612650565b60405180910390fd5b83600560003373ffffffffffffffffffffffffffffffffffffffff1673ffffffffffffffffffffffffffffffffffffffff16815260200190815260200160002060008282546107eb9190612584565b925050819055508273ffffffffffffffffffffffffffffffffffffffff166108fc859081150290604051600060405180830381858888f19350505050158015610838573d6000803e3d6000fd5b5050505050565b60085481565b6060600380546108549061269f565b80601f01602080910402602001604051908101604052809291908181526020018280546108809061269f565b80156108cd5780601f106108a2576101008083540402835291602001916108cd565b820191906000526020600020905b8154815290600101906020018083116108b057829003601f168201915b5050505050905090565b6000806108e26119b5565b90506108ef8185856119bd565b600191505092915050565b6000600254905090565b6b0295be96e64066972000000081565b60056020528060005260406000206000915090505481565b6000806109376119b5565b90506109448582856119cf565b61094f858585611a63565b60019150509392505050565b60006012905090565b806007600082815260200190815260200160002060040160009054906101000a900473ffffffffffffffffffffffffffffffffffffffff1673ffffffffffffffffffffffffffffffffffffffff163373ffffffffffffffffffffffffffffffffffffffff1614610a09576040517f08c379a0000000000000000000000000000000000000000000000000000000008152600401610a0090612742565b60405180910390fd5b60046007811115610a1d57610a1c612340565b5b60076000848152602001908152602001600020600b0160009054906101000a900460ff166007811115610a5357610a52612340565b5b14610a93576040517f08c379a0000000000000000000000000000000000000000000000000000000008152600401610a8a906127d4565b60405180910390fd5b600560076000848152602001908152602001600020600b0160006101000a81548160ff02191690836007811115610acd57610acc612340565b5b02179055505050565b60066020528060005260406000206000915090505481565b806007600082815260200190815260200160002060050160009054906101000a900473ffffffffffffffffffffffffffffffffffffffff1673ffffffffffffffffffffffffffffffffffffffff163373ffffffffffffffffffffffffffffffffffffffff1614610b93576040517f08c379a0000000000000000000000000000000000000000000000000000000008152600401610b8a90612866565b60405180910390fd5b60056007811115610ba757610ba6612340565b5b60076000848152602001908152602001600020600b0160009054906101000a900460ff166007811115610bdd57610bdc612340565b5b14610c1d576040517f08c379a0000000000000000000000000000000000000000000000000000000008152600401610c149061291e565b60405180910390fd5b600660076000848152602001908152602001600020600b0160006101000a81548160ff02191690836007811115610c5757610c56612340565b5b02179055505050565b60008060008373ffffffffffffffffffffffffffffffffffffffff1673ffffffffffffffffffffffffffffffffffffffff168152602001908152602001600020549050919050565b806007600082815260200190815260200160002060040160009054906101000a900473ffffffffffffffffffffffffffffffffffffffff1673ffffffffffffffffffffffffffffffffffffffff163373ffffffffffffffffffffffffffffffffffffffff1614610d4d576040517f08c379a0000000000000000000000000000000000000000000000000000000008152600401610d4490612742565b60405180910390fd5b60016007811115610d6157610d60612340565b5b60076000848152602001908152602001600020600b0160009054906101000a900460ff166007811115610d9757610d96612340565b5b14610dd7576040517f08c379a0000000000000000000000000000000000000000000000000000000008152600401610dce906129b0565b60405180910390fd5b60026007600084815260200190815260200160002060010154610dfa91906129d0565b600560006007600086815260200190815260200160002060040160009054906101000a900473ffffffffffffffffffffffffffffffffffffffff1673ffffffffffffffffffffffffffffffffffffffff1673ffffffffffffffffffffffffffffffffffffffff168152602001908152602001600020541015610eb1576040517f08c379a0000000000000000000000000000000000000000000000000000000008152600401610ea890612a84565b60405180910390fd5b6007600083815260200190815260200160002060010154600560006007600086815260200190815260200160002060050160009054906101000a900473ffffffffffffffffffffffffffffffffffffffff1673ffffffffffffffffffffffffffffffffffffffff1673ffffffffffffffffffffffffffffffffffffffff168152602001908152602001600020541015610f7f576040517f08c379a0000000000000000000000000000000000000000000000000000000008152600401610f7690612b16565b60405180910390fd5b600060026007600085815260200190815260200160002060010154610fa491906129d0565b905060006007600085815260200190815260200160002060010154905081600660006007600088815260200190815260200160002060040160009054906101000a900473ffffffffffffffffffffffffffffffffffffffff1673ffffffffffffffffffffffffffffffffffffffff1673ffffffffffffffffffffffffffffffffffffffff16815260200190815260200160002060008282546110469190612009565b9250508190555080600660006007600088815260200190815260200160002060050160009054906101000a900473ffffffffffffffffffffffffffffffffffffffff1673ffffffffffffffffffffffffffffffffffffffff1673ffffffffffffffffffffffffffffffffffffffff16815260200190815260200160002060008282546110d29190612009565b92505081905550600260076000868152602001908152602001600020600b0160006101000a81548160ff0219169083600781111561111357611112612340565b5b021790555050505050565b6a52b7d2dcc80cd2e400000081565b6a52b7d2dcc80cd2e400000081565b60606004805461114b9061269f565b80601f01602080910402602001604051908101604052809291908181526020018280546111779061269f565b80156111c45780601f10611199576101008083540402835291602001916111c4565b820191906000526020600020905b8154815290600101906020018083116111a757829003601f168201915b5050505050905090565b6000806111d96119b5565b90506111e6818585611a63565b600191505092915050565b60076020528060005260406000206000915090508060000154908060010154908060020154908060030154908060040160009054906101000a900473ffffffffffffffffffffffffffffffffffffffff16908060050160009054906101000a900473ffffffffffffffffffffffffffffffffffffffff169080600601549080600701549080600801549080600901549080600a01549080600b0160009054906101000a900460ff1690508c565b8373ffffffffffffffffffffffffffffffffffffffff163373ffffffffffffffffffffffffffffffffffffffff160361130c576040517f08c379a000000000000000000000000000000000000000000000000000000000815260040161130390612ba8565b60405180910390fd5b80421061134e576040517f08c379a000000000000000000000000000000000000000000000000000000000815260040161134590612c3a565b60405180910390fd5b6040518061018001604052806008548152602001848152602001838152602001600081526020018573ffffffffffffffffffffffffffffffffffffffff1681526020013373ffffffffffffffffffffffffffffffffffffffff168152602001428152602001828152602001600081526020016000815260200160008152602001600160078111156113e2576113e1612340565b5b8152506007600060085481526020019081526020016000206000820151816000015560208201518160010155604082015181600201556060820151816003015560808201518160040160006101000a81548173ffffffffffffffffffffffffffffffffffffffff021916908373ffffffffffffffffffffffffffffffffffffffff16021790555060a08201518160050160006101000a81548173ffffffffffffffffffffffffffffffffffffffff021916908373ffffffffffffffffffffffffffffffffffffffff16021790555060c0820151816006015560e082015181600701556101008201518160080155610120820151816009015561014082015181600a015561016082015181600b0160006101000a81548160ff0219169083600781111561151157611510612340565b5b02179055509050506008600081548092919061152c90612c5a565b919050555050505050565b6000600160008473ffffffffffffffffffffffffffffffffffffffff1673ffffffffffffffffffffffffffffffffffffffff16815260200190815260200160002060008373ffffffffffffffffffffffffffffffffffffffff1673ffffffffffffffffffffffffffffffffffffffff16815260200190815260200160002054905092915050565b806007600082815260200190815260200160002060050160009054906101000a900473ffffffffffffffffffffffffffffffffffffffff1673ffffffffffffffffffffffffffffffffffffffff163373ffffffffffffffffffffffffffffffffffffffff1614611663576040517f08c379a000000000000000000000000000000000000000000000000000000000815260040161165a90612866565b60405180910390fd5b6002600781111561167757611676612340565b5b60076000848152602001908152602001600020600b0160009054906101000a900460ff1660078111156116ad576116ac612340565b5b146116ed576040517f08c379a00000000000000000000000000000000000000000000000000000000081526004016116e490612d14565b60405180910390fd5b426007600084815260200190815260200160002060080181905550600360076000848152602001908152602001600020600b0160006101000a81548160ff0219169083600781111561174257611741612340565b5b02179055505050565b806007600082815260200190815260200160002060040160009054906101000a900473ffffffffffffffffffffffffffffffffffffffff1673ffffffffffffffffffffffffffffffffffffffff163373ffffffffffffffffffffffffffffffffffffffff16146117f0576040517f08c379a00000000000000000000000000000000000000000000000000000000081526004016117e790612742565b60405180910390fd5b6003600781111561180457611803612340565b5b60076000848152602001908152602001600020600b0160009054906101000a900460ff16600781111561183a57611839612340565b5b1461187a576040517f08c379a000000000000000000000000000000000000000000000000000000000815260040161187190612dcc565b60405180910390fd5b42600760008481526020019081526020016000206009018190555060076000838152602001908152602001600020600701546007600084815260200190815260200160002060090154111561197257600062015180600760008581526020019081526020016000206007015460076000868152602001908152602001600020600901546119079190612584565b6119119190612e1b565b9050600060076000858152602001908152602001600020600201548261193791906129d0565b90508160076000868152602001908152602001600020600301819055508060076000868152602001908152602001600020600a018190555050505b600460076000848152602001908152602001600020600b0160006101000a81548160ff021916908360078111156119ac576119ab612340565b5b02179055505050565b600033905090565b6119ca8383836001611b57565b505050565b60006119db8484611537565b90507fffffffffffffffffffffffffffffffffffffffffffffffffffffffffffffffff8114611a5d5781811015611a4d578281836040517ffb8f41b2000000000000000000000000000000000000000000000000000000008152600401611a4493929190612e4c565b60405180910390fd5b611a5c84848484036000611b57565b5b50505050565b600073ffffffffffffffffffffffffffffffffffffffff168373ffffffffffffffffffffffffffffffffffffffff1603611ad55760006040517f96c6fd1e000000000000000000000000000000000000000000000000000000008152600401611acc9190612e83565b60405180910390fd5b600073ffffffffffffffffffffffffffffffffffffffff168273ffffffffffffffffffffffffffffffffffffffff1603611b475760006040517fec442f05000000000000000000000000000000000000000000000000000000008152600401611b3e9190612e83565b60405180910390fd5b611b52838383611d2e565b505050565b600073ffffffffffffffffffffffffffffffffffffffff168473ffffffffffffffffffffffffffffffffffffffff1603611bc95760006040517fe602df05000000000000000000000000000000000000000000000000000000008152600401611bc09190612e83565b60405180910390fd5b600073ffffffffffffffffffffffffffffffffffffffff168373ffffffffffffffffffffffffffffffffffffffff1603611c3b5760006040517f94280d62000000000000000000000000000000000000000000000000000000008152600401611c329190612e83565b60405180910390fd5b81600160008673ffffffffffffffffffffffffffffffffffffffff1673ffffffffffffffffffffffffffffffffffffffff16815260200190815260200160002060008573ffffffffffffffffffffffffffffffffffffffff1673ffffffffffffffffffffffffffffffffffffffff168152602001908152602001600020819055508015611d28578273ffffffffffffffffffffffffffffffffffffffff168473ffffffffffffffffffffffffffffffffffffffff167f8c5be1e5ebec7d5bd14f71427d1e84f3dd0314c0f7b2291e5b200ac8c7c3b92584604051611d1f919061211b565b60405180910390a35b50505050565b600073ffffffffffffffffffffffffffffffffffffffff168373ffffffffffffffffffffffffffffffffffffffff1603611d80578060026000828254611d749190612009565b92505081905550611e53565b60008060008573ffffffffffffffffffffffffffffffffffffffff1673ffffffffffffffffffffffffffffffffffffffff16815260200190815260200160002054905081811015611e0c578381836040517fe450d38c000000000000000000000000000000000000000000000000000000008152600401611e0393929190612e4c565b60405180910390fd5b8181036000808673ffffffffffffffffffffffffffffffffffffffff1673ffffffffffffffffffffffffffffffffffffffff16815260200190815260200160002081905550505b600073ffffffffffffffffffffffffffffffffffffffff168273ffffffffffffffffffffffffffffffffffffffff1603611e9c5780600260008282540392505081905550611ee9565b806000808473ffffffffffffffffffffffffffffffffffffffff1673ffffffffffffffffffffffffffffffffffffffff168152602001908152602001600020600082825401925050819055505b8173ffffffffffffffffffffffffffffffffffffffff168373ffffffffffffffffffffffffffffffffffffffff167fddf252ad1be2c89b69c2b068fc378daa952ba7f163c4a11628f55a4df523b3ef83604051611f46919061211b565b60405180910390a3505050565b600082825260208201905092915050565b7f56616c75652073686f756c64206e6f74206265207a65726f0000000000000000600082015250565b6000611f9a601883611f53565b9150611fa582611f64565b602082019050919050565b60006020820190508181036000830152611fc981611f8d565b9050919050565b6000819050919050565b7f4e487b7100000000000000000000000000000000000000000000000000000000600052601160045260246000fd5b600061201482611fd0565b915061201f83611fd0565b925082820190508082111561203757612036611fda565b5b92915050565b600080fd5b61204b81611fd0565b811461205657600080fd5b50565b60008135905061206881612042565b92915050565b600073ffffffffffffffffffffffffffffffffffffffff82169050919050565b60006120998261206e565b9050919050565b6120a98161208e565b81146120b457600080fd5b50565b6000813590506120c6816120a0565b92915050565b600080604083850312156120e3576120e261203d565b5b60006120f185828601612059565b9250506020612102858286016120b7565b9150509250929050565b61211581611fd0565b82525050565b6000602082019050612130600083018461210c565b92915050565b600081519050919050565b60005b8381101561215f578082015181840152602081019050612144565b60008484015250505050565b6000601f19601f8301169050919050565b600061218782612136565b6121918185611f53565b93506121a1818560208601612141565b6121aa8161216b565b840191505092915050565b600060208201905081810360008301526121cf818461217c565b905092915050565b600080604083850312156121ee576121ed61203d565b5b60006121fc858286016120b7565b925050602061220d85828601612059565b9150509250929050565b60008115159050919050565b61222c81612217565b82525050565b60006020820190506122476000830184612223565b92915050565b6000602082840312156122635761226261203d565b5b6000612271848285016120b7565b91505092915050565b6000806000606084860312156122935761229261203d565b5b60006122a1868287016120b7565b93505060206122b2868287016120b7565b92505060406122c386828701612059565b9150509250925092565b600060ff82169050919050565b6122e3816122cd565b82525050565b60006020820190506122fe60008301846122da565b92915050565b60006020828403121561231a5761231961203d565b5b600061232884828501612059565b91505092915050565b61233a8161208e565b82525050565b7f4e487b7100000000000000000000000000000000000000000000000000000000600052602160045260246000fd5b600881106123805761237f612340565b5b50565b60008190506123918261236f565b919050565b60006123a182612383565b9050919050565b6123b181612396565b82525050565b6000610180820190506123cd600083018f61210c565b6123da602083018e61210c565b6123e7604083018d61210c565b6123f4606083018c61210c565b612401608083018b612331565b61240e60a083018a612331565b61241b60c083018961210c565b61242860e083018861210c565b61243661010083018761210c565b61244461012083018661210c565b61245261014083018561210c565b6124606101608301846123a8565b9d9c50505050505050505050505050565b6000806000806080858703121561248b5761248a61203d565b5b6000612499878288016120b7565b94505060206124aa87828801612059565b93505060406124bb87828801612059565b92505060606124cc87828801612059565b91505092959194509250565b600080604083850312156124ef576124ee61203d565b5b60006124fd858286016120b7565b925050602061250e858286016120b7565b9150509250929050565b7f496e73756666696369656e742062616c616e6365000000000000000000000000600082015250565b600061254e601483611f53565b915061255982612518565b602082019050919050565b6000602082019050818103600083015261257d81612541565b9050919050565b600061258f82611fd0565b915061259a83611fd0565b92508282039050818111156125b2576125b1611fda565b5b92915050565b7f416d6f756e74206973206c6f636b656420696e206465616c733b20796f75206360008201527f616e6e6f74207769746864726177207468697320616d6f756e74207768696c6560208201527f2061206465616c2069732072756e6e696e670000000000000000000000000000604082015250565b600061263a605283611f53565b9150612645826125b8565b606082019050919050565b600060208201905081810360008301526126698161262d565b9050919050565b7f4e487b7100000000000000000000000000000000000000000000000000000000600052602260045260246000fd5b600060028204905060018216806126b757607f821691505b6020821081036126ca576126c9612670565b5b50919050565b7f4f6e6c79207468652062757965722063616e206d6f646966792074686973206460008201527f65616c0000000000000000000000000000000000000000000000000000000000602082015250565b600061272c602383611f53565b9150612737826126d0565b604082019050919050565b6000602082019050818103600083015261275b8161271f565b9050919050565b7f4275796572206d7573742072656365697665207468652070617263656c20626560008201527f666f72652065787072657373696e6720736174697366616374696f6e00000000602082015250565b60006127be603c83611f53565b91506127c982612762565b604082019050919050565b600060208201905081810360008301526127ed816127b1565b9050919050565b7f4f6e6c79207468652073656c6c65722063616e2073656e64207468652070617260008201527f63656c0000000000000000000000000000000000000000000000000000000000602082015250565b6000612850602383611f53565b915061285b826127f4565b604082019050919050565b6000602082019050818103600083015261287f81612843565b9050919050565b7f4275796572206d757374206578707265737320736174697366616374696f6e2060008201527f6265666f7265207468652073656c6c65722063616e20636f6d706c657465207460208201527f6865206465616c00000000000000000000000000000000000000000000000000604082015250565b6000612908604783611f53565b915061291382612886565b606082019050919050565b60006020820190508181036000830152612937816128fb565b9050919050565b7f4465616c206973206e6f7420696e2074686520636f727265637420737461746560008201527f206f7220616c726561647920636c6f7365640000000000000000000000000000602082015250565b600061299a603283611f53565b91506129a58261293e565b604082019050919050565b600060208201905081810360008301526129c98161298d565b9050919050565b60006129db82611fd0565b91506129e683611fd0565b92508282026129f481611fd0565b91508282048414831517612a0b57612a0a611fda565b5b5092915050565b7f42757965722062616c616e63652073686f756c64206265206174206c6561737460008201527f20646f75626c6520746865206465616c20616d6f756e74000000000000000000602082015250565b6000612a6e603783611f53565b9150612a7982612a12565b604082019050919050565b60006020820190508181036000830152612a9d81612a61565b9050919050565b7f53656c6c65722062616c616e63652073686f756c64206265206174206c65617360008201527f7420657175616c20746f20746865206465616c20616d6f756e74000000000000602082015250565b6000612b00603a83611f53565b9150612b0b82612aa4565b604082019050919050565b60006020820190508181036000830152612b2f81612af3565b9050919050565b7f427579657220616e642073656c6c6572206164647265737365732063616e6e6f60008201527f74206265207468652073616d6500000000000000000000000000000000000000602082015250565b6000612b92602d83611f53565b9150612b9d82612b36565b604082019050919050565b60006020820190508181036000830152612bc181612b85565b9050919050565b7f4465616c20646561646c696e652063616e6e6f7420626520696e20746865207060008201527f6173740000000000000000000000000000000000000000000000000000000000602082015250565b6000612c24602383611f53565b9150612c2f82612bc8565b604082019050919050565b60006020820190508181036000830152612c5381612c17565b9050919050565b6000612c6582611fd0565b91507fffffffffffffffffffffffffffffffffffffffffffffffffffffffffffffffff8203612c9757612c96611fda565b5b600182019050919050565b7f4275796572206d757374206167726565206265666f7265207468652073656c6c60008201527f65722063616e2073656e64207468652070617263656c00000000000000000000602082015250565b6000612cfe603683611f53565b9150612d0982612ca2565b604082019050919050565b60006020820190508181036000830152612d2d81612cf1565b9050919050565b7f50617263656c206d7573742062652073656e74206279207468652073656c6c6560008201527f72206265666f7265207468652062757965722063616e2072656365697665206960208201527f7400000000000000000000000000000000000000000000000000000000000000604082015250565b6000612db6604183611f53565b9150612dc182612d34565b606082019050919050565b60006020820190508181036000830152612de581612da9565b9050919050565b7f4e487b7100000000000000000000000000000000000000000000000000000000600052601260045260246000fd5b6000612e2682611fd0565b9150612e3183611fd0565b925082612e4157612e40612dec565b5b828204905092915050565b6000606082019050612e616000830186612331565b612e6e602083018561210c565b612e7b604083018461210c565b949350505050565b6000602082019050612e986000830184612331565b9291505056fea2646970667358221220fe8ec26ec3bc31db2e13d0dc9ad25a501a141dbe43a8832d9b6df8ee2101095564736f6c634300081b0033",
  "linkReferences": {},
  "deployedLinkReferences": {}
}